:04000000C6EF00F057
:100008007B829EA00ED0F80ECF6E560ECE6E8A1E44
:100018009E90010E0001A827000EA923AA23AB2356
:10002800AFD0F2A4ADD0F29494D08BB203D0046ACE
:10003800042A01D0046A04468B500418FD0B0418E6
:100048008B6EAEC001F0AFC002F08BA202D0010EE1
:1000580001D0000EAFEC0DF08FD08AB203D0046A45
:10006800042A01D0046A04468A500418FD0B0418B7
:100078008A6EB0C001F0B1C002F08AA202D0010EAF
:1000880001D0000EAFEC0DF077D08AB403D0046A2B
:10009800042A01D0046A044604468A500418FB0B5B
:1000A80004188A6EB2C001F0B3C002F08AA402D06C
:1000B800010E01D0000EAFEC0DF05ED08AB603D071
:1000C800046A042A01D0046A0446044604468A5095
:1000D8000418F70B04188A6EB4C001F0B5C002F01A
:1000E8008AA602D0010E01D0000EAFEC0DF044D06C
:1000F8008AB803D0046A042A01D0046A043A8A50F0
:100108000418EF0B04188A6EB6C001F0B7C002F0ED
:100118008AA802D0010E01D0000EAFEC0DF02CD051
:100128008ABA03D0046A042A01D0046A043A04464D
:100138008A500418DF0B04188A6EB8C001F0B9C0E1
:1001480002F08AAA02D0010E01D0000EAFEC0DF029
:1001580013D07A50010AD8B468D7030AD8B47DD727
:10016800010AD8B492D7070AD8B4A8D7010AD8B4D4
:10017800BFD7030AD8B4D4D778C0D7FF77C0D6FF83
:100188007B921100B1EF0CF069EC0EF08A68000E5A
:1001980037EC0BF005C0DEF006C0DFF0000E0E6E87
:1001A800640E0D6E52EC0CF00DC0EDF00EC0EEF0CA
:1001B8000001000EEEBFFF0EEF6FF06FA7EC0EF020
:1001C800000E066E010E056E000E086E010E076E1B
:1001D80062EC08F0A1D1F2EC05F054C0E5F055C08E
:1001E800E6F056C0E7F057C0E8F0000E37EC0BF029
:1001F80005C0E9F006C0EAF00001000EEABFFF0EF4
:10020800EB6FEC6FE551E95DF66FE651EA59F76F70
:10021800E751EB59F86FE851EC59F96FA051F65DC9
:100228002E6EA151F7592F6EA251F859306EA35175
:10023800F959316E000E326E000E336E000E346EB8
:10024800000E356EE6EC06F02EC0D6F02FC0D7F0C3
:1002580030C0D8F031C0D9F0F6C022F0F7C023F092
:10026800F8C024F0F9C025F0000E266E000E276EA7
:10027800000E286E000E296EDCEC0CF022500001F6
:10028800A4272350A5232450A6232550A723F6C02E
:1002980022F0F7C023F0F8C024F0F9C025F04C0E86
:1002A800266E1D0E276E000E286E000E296EDCECE1
:1002B8000CF022C068F023C069F024C06AF025C0A1
:1002C8006BF0A4C022F0A5C023F0A6C024F0A7C0FC
:1002D80025F0D00E266E070E276E000E286E000E33
:1002E800296EDCEC0CF0225068246C6E23506920D7
:1002F8006D6E24506A206E6E25506B206F6ED6C0CE
:1003080022F0D7C023F0D8C024F0D9C025F0D00EF1
:10031800266E070E276E000E286E000E296EDCEC86
:100328000CF022506C242E6E23506D202F6E24501A
:100338006E20306E25506F20316E640E326E000EC6
:10034800336E000E346E000E356EE6EC06F02EC0ED
:10035800F2F02FC0F3F030C0F4F031C0F5F0000136
:10036800F5AF08D0000EF26F000EF36F000EF46FB9
:10037800000EF56FF5BF10D0F551F41105E1F22923
:10038800010EF359D8A008D0FE0EF26F010EF36FDC
:10039800000EF46F000EF56F000E0A6E000E096E67
:1003A800F2C00BF0F3C00CF007EC0DF0F6C0A0F0B3
:1003B800F7C0A1F0F8C0A2F0F9C0A3F0010E086ED2
:1003C800010E5BEC09F0B40E096E1F0E0A6E75EC97
:1003D8000BF0E00E4F6EF00E506E1F0E516EF6C011
:1003E80052F0F7C053F0F8C054F0F9C055F077EC6C
:1003F8000DF0E00E096E0A6A75EC0BF0010E086E3E
:10040800020E5BEC09F0E20E096E1F0E0A6E75EC27
:100418000BF0E00E4F6EF00E506E1F0E516EE9C0DD
:1004280052F0EAC053F0EBC054F0ECC055F077EC52
:100438000DF0E00E096E0A6A75EC0BF0010E086EFD
:10044800030E5BEC09F0DD0E096E1F0E0A6E75ECEB
:100458000BF0E00E4F6EF00E506E1F0E516EE5C0A1
:1004680052F0E6C053F0E7C054F0E8C055F077EC1E
:100478000DF0E00E096E0A6A75EC0BF00A0E086EB4
:10048800040E5BEC09F0EC0E096E1F0E0A6E75EC9B
:100498000BF0A8C02EF0A9C02FF0AAC030F0ABC056
:1004A80031F0E80E326E030E336E000E346E000E1D
:1004B800356EE6EC06F02E500001ED5DDA6F2F5038
:1004C800EE59DB6F3050EF59DC6F3150F059DD6F6A
:1004D800E00E4F6EF70E506E1F0E516EDAC052F0DE
:1004E800DBC053F0DCC054F0DDC055F077EC0DF004
:1004F800E00E096E0A6A75EC0BF0000E066E640ECB
:10050800056E59EC0EF0A7EC0EF0000E37EC0BF070
:1005180005C0DEF006C0DFF0EDC022F0EEC023F02B
:10052800EFC024F0F0C025F0E80E266E030E276E0B
:10053800000E286E000E296EDCEC0CF02250000133
:10054800A85D2350A9592450AA59AB51800A686E56
:100558002550800A6858D8A03ED6000E066E010EB7
:10056800056E000E086E000E076E62EC08F0000EB5
:100578000A6E010E096E000E0C6E000E0B6E07EC73
:100588000DF0A7EC0EF0010E086E010E5BEC09F001
:10059800FF0E096E1E0E0A6E75EC0BF0000E0001C0
:1005A800F16F000E066E030E056E000E086E010E4A
:1005B800076E62EC08F0000E066E020E056E000E65
:1005C800086E010E076E62EC08F00B0E696E260EBF
:1005D800686E5E0EE82EFED7682EFCD7692EFAD715
:1005E800000E066E030E056E000E086E000E076EF6
:1005F80062EC08F0000E066E020E056E000E086E24
:10060800000E076E62EC08F00B0E696E260E686E1F
:100618005E0EE82EFED7682EFCD7692EFAD70001A9
:10062800F12BF151800A7B0FD8A0BBD7DEC011F0A7
:10063800DFC012F04CEC07F01200819081828184B7
:10064800818681B810D0020E066E040E056EBA0EB1
:10065800E82EFED7052EFCD7062EFAD700D081A8A3
:10066800FED7370E120082BE10D0020E066E040EA0
:10067800056EBA0EE82EFED7052EFCD7062EFAD741
:1006880000D082AEFED7380E120081BC10D0020E08
:10069800066E040E056EBA0EE82EFED7052EFCD7A0
:1006A800062EFAD700D081ACFED7390E120081BED3
:1006B80010D0020E066E040E056EBA0EE82EFED796
:1006C800052EFCD7062EFAD700D081AEFED7750EC0
:1006D8001200818081928184818681B810D0020EB7
:1006E800066E040E056EBA0EE82EFED7052EFCD750
:1006F800062EFAD700D081A8FED7340E120082BE8B
:1007080010D0020E066E040E056EBA0EE82EFED745
:10071800052EFCD7062EFAD700D082AEFED7350EAE
:10072800120081BC10D0020E066E040E056EBA0EC1
:10073800E82EFED7052EFCD7062EFAD700D081ACBE
:10074800FED7360E120081BE10D0020E066E040EC1
:10075800056EBA0EE82EFED7052EFCD7062EFAD760
:1007680000D081AEFED7720E120081808182819402
:10077800818681B810D0020E066E040E056EBA0E80
:10078800E82EFED7052EFCD7062EFAD700D081A872
:10079800FED7310E120082BE10D0020E066E040E75
:1007A800056EBA0EE82EFED7052EFCD7062EFAD710
:1007B80000D082AEFED7320E120081BC10D0020EDD
:1007C800066E040E056EBA0EE82EFED7052EFCD76F
:1007D800062EFAD700D081ACFED7330E120081BEA8
:1007E80010D0020E066E040E056EBA0EE82EFED765
:1007F800052EFCD7062EFAD700D081AEFED76C0E98
:100808001200818081828184819681B810D0020E85
:10081800066E040E056EBA0EE82EFED7052EFCD71E
:10082800062EFAD700D081A8FED7620E120082BE2B
:1008380010D0020E066E040E056EBA0EE82EFED714
:10084800052EFCD7062EFAD700D082AEFED7300E82
:10085800120081BC10D0020E066E040E056EBA0E90
:10086800E82EFED7052EFCD7062EFAD700D081AC8D
:10087800FED72E0E120081BE10D0020E066E040E98
:10088800056EBA0EE82EFED7052EFCD7062EFAD72F
:1008980000D081AEFED7640E12006E0E12003D50DD
:1008A800D96EDA6ADECFF6FFDDCFF7FF0800F55024
:1008B800250AD8A4EED03D50D96EDA6ADE2A000E99
:1008C800DD22000E0001AD6F000EAC6FACC079F0F8
:1008D800756876683D50D96EDA6ADECF42F0DDCFB2
:1008E80043F042C0F6FF43C0F7FF0800F5CF48F0D9
:1008F80008D0424A432A10D0690E01D0000E486E33
:100908000BD04850640AD8B4F7D70D0AD8B4F4D736
:10091800050AD8B4EED7F2D742C0F6FF43C0F7FFB6
:100928000800F550640AD8B42DD042C0F6FF43C081
:10093800F7FF0800F550690AD8B424D0A3D03E5078
:10094800D96EDA6ADF50DF2ADF2AD96EDA6ADECF9B
:1009580044F0DDCF45F0000E45BEFF0E466E476EF3
:1009680018D03E50D96EDA6A040EDF26DF5CD96EE5
:10097800DA6ADECF44F0DECF45F0DECF46F0DECFD8
:1009880047F007D04850690AD8B4D9D7050AD8B46F
:10099800E8D7010E42243F6E000E4320406E3D50C2
:1009A800D96EDA6A3FC0DEFF40C0DDFF200E486E18
:1009B80047AE02D0010E01D0000E416E48064850E5
:1009C800800FD96EDA6A44C005F045C006F046C00B
:1009D80007F047C008F00A0E096E000E0A6E000EF6
:1009E8000B6E000E0C6E0CEC08F005C00FF006C084
:1009F80010F010EC0EF00F50300FDF6E44C02EF0E8
:100A080045C02FF046C030F047C031F00A0E326EB4
:100A1800000E336E000E346E000E356EE6EC06F0F6
:100A28002EC044F02FC045F030C046F031C047F02A
:100A38004450451046104710D8B403D04850D8A4A5
:100A4800BDD74850D8B419D04150D8B416D04806AC
:100A58004850800FD96EDA6A2D0EDF6E0ED04850DE
:100A6800800FD96EDA6ADF503F6E3F50056E066A16
:100A78003CC007F0B7EC0AF0482A200E4818D8B452
:100A88001200EDD73D50D96EDA6ADE2A000EDD225B
:100A980012003D50D96EDA6ADECFF6FFDDCFF7FFE0
:100AA8000800F550056E066A3CC007F0B7EC0AF07E
:100AB800E9D73CC022F03DC023F03EC024F03FC03F
:100AC80025F0100E266E270E276E000E286E000EDB
:100AD800296EDCEC0CF022C02EF023C02FF024C0CD
:100AE80030F025C031F09E0E326E000E336E000ECF
:100AF800346E000E356EE6EC06F02EC044F02FC0C2
:100B080045F030C046F031C047F044C02EF045C033
:100B18002FF046C030F047C031F040C032F041C03D
:100B280033F042C034F043C035F0E6EC06F02EC096
:100B380048F02FC049F030C04AF031C04BF048C0EF
:100B480022F049C023F04AC024F04BC025F0640EBF
:100B5800266E000E276E000E286E000E296EDCEC45
:100B68000CF022C02EF023C02FF024C030F025C096
:100B780031F00A0E326E000E336E000E346E000E27
:100B8800356EE6EC06F02EC04CF02FC04DF030C0AC
:100B98004EF031C04FF04CC02EF04DC02FF04EC07B
:100BA80030F04FC031F0060E326E000E336E000E7C
:100BB800346E000E356EE6EC06F02EC050F02FC0F5
:100BC80051F030C052F031C053F050C03CF051C029
:100BD8003DF052C03EF053C03FF01200A8C058F09C
:100BE800A9C059F0AAC05AF0ABC05BF0000E0E6E57
:100BF800640E0D6E52EC0CF00DC040F00EC041F0CA
:100C0800000E41BEFF0E426E436ED2C03CF0D3C010
:100C18003DF0D4C03EF0D5C03FF05DEC05F03CC0DF
:100C280060F03DC061F03EC062F03FC063F0E80E86
:100C3800196E030E1A6E000E1B6E000E1C6E58C045
:100C480015F059C016F05AC017F05BC018F035EC13
:100C58000AF015C022F016C023F017C024F018C0FF
:100C680025F060C026F061C027F062C028F063C09C
:100C780029F0DCEC0CF022C064F023C065F024C03D
:100C880066F025C067F064C015F065C016F066C050
:100C980017F067C018F00A0E196E000E1A6E000ED3
:100CA8001B6E000E1C6E35EC0AF01550FF085C6ECA
:100CB800030E16545D6E000E17545E6E000E185427
:100CC8005F6E5CC054F05DC055F05EC056F05FC00A
:100CD80057F012001A6E1AC015F0000E1D6E000EA5
:100CE8001C6E080E086E030E5BEC09F051D08BECFD
:100CF8000EF01B6E620E1B18D8A405D0620E0F6E84
:100D0800000E106E12002F0E1B6442D03A0E1B60AC
:100D18003FD0060E126E130E116EAE0EE82EFED7E1
:100D2800112EFCD7122EFAD71C50130FD96EDA6A7F
:100D38001BC0DFFF1C50130FD96EDA6ADF50186E24
:100D4800000E196E180E096E0A6A75EC0BF01C4A33
:100D58001D2A1C50080F086E030E5BEC09F01C508E
:100D6800130FD96EDA6A1A50DE18D8A411D01AC037
:100D780018F0000E196E180E096E0A6A75EC0BF061
:100D88001C4A1D2A1C50080F086E030E5BEC09F064
:100D98001C500F5C1050800A116E1D50800A1158AB
:100DA800D8B0A5D7150E126E4B0E116EBE0EE82EDA
:100DB800FED7112EFCD7122EFAD700D0130E0F6EC5
:100DC800106A1200000E376E35AE0AD0351E341E7A
:100DD800331E326C000E332234223522010E376E58
:100DE80031AE0AD0311E301E2F1E2E6C000E2F225F
:100DF80030223122010E371A000E386E000E396E7D
:100E0800000E3A6E000E3B6E32503310341035101F
:100E1800D8B42AD0010E366E06D0D8903236333682
:100E280034363536362A35AEF8D7D890383639368E
:100E38003A363B3632502E5C33502F5834503058A7
:100E480035503158D8A009D032502E5E33502F5A21
:100E58003450305A3550315A3880D890353234327F
:100E680033323232362EE1D73750D8B408D03B1E51
:100E78003A1E391E386C000E39223A223B2238C0FD
:100E88002EF039C02FF03AC030F03BC031F01200DC
:100E9800AC0E0F6E1F0E106EF7EC0AF0ABEC09F0FB
:100EA80008C014F009C015F014041510D8A41200D5
:100EB800A7EC0EF0010E086E010E5BEC09F0670E50
:100EC800096E1F0E0A6E75EC0BF02AD0000E37EC77
:100ED8000BF005C011F006C012F0000E066E010EF0
:100EE800056E000E086E010E076E62EC08F0410EEA
:100EF800136EEE0EE82EFED7132EFCD700D0000E90
:100F08000A6E000E096E030E0C6E0B6807EC0DF0EE
:100F1800410E136EEE0EE82EFED7132EFCD700D02E
:100F280012BE06D01250D2E1150E115CD8B0CED741
:100F3800000E0A6E010E096E000E0C6E000E0B6E8E
:100F480007EC0DF0000E066E010E056E000E086E21
:100F5800000E076E62EC08F0120020EE03F02E502F
:100F6800D9262F50DA22DF50326ED00E3224336E5B
:100F7800346AFF0E342220EE01F02E50D9262F506D
:100F8800DA22DF50356ED00E3524366E376AFF0E02
:100F9800372236C022F037C023F0246A256A0A0EA9
:100FA800266E000E276E000E286E000E296EDCECF1
:100FB8000CF033502224386E34502320396E000E42
:100FC80024203A6E000E25203B6E20EE01F02E50B4
:100FD800D9262F50DA22DF50326ED00E3224336EEB
:100FE800346AFF0E342233503410D8A408D0640E6B
:100FF800386E000E396E000E3A6E000E3B6E38C029
:101008002EF039C02FF03AC030F03BC031F012005A
:10101800000E0E6E08AE0AD0081E071E061E056CCE
:10102800000E062207220822010E0E6E0CAE08D012
:101038000C1E0B1E0A1E096C000E0A220B220C2223
:1010480009500A100B100C10D8B424D0010E0D6EE4
:1010580006D0D89009360A360B360C360D2A0CAE57
:10106800F8D70950055C0A5006580B5007580C5021
:101078000858D8A008D00950055E0A50065A0B50E7
:10108800075A0C50085AD8900C320B320A320932DF
:101098000D2EE7D70E50D8B408D0081E071E061E1E
:1010A800056C000E06220722082205C005F006C0BE
:1010B80006F007C007F008C008F012000550061037
:1010C800D8A406D007040810D8A402D08984120036
:1010D80005500610D8A406D007500810D8A402D08E
:1010E8008994120005040610D8A406D00704081035
:1010F800D8A402D08B8C120005040610D8A406D000
:1011080007500810D8A402D08B9C1200020E0518B4
:101118000610D8A406D007040810D8A402D08B8AD9
:101128001200020E05180610D8A406D007500810A1
:10113800D8A402D08B9A1200030E05180610D8A462
:1011480006D007040810D8A402D08B881200030E1A
:1011580005180610D8A4120007500810D8A41200C9
:101168008B981200A7EC0EF0010E086E010E5BECD6
:1011780009F0C90E096E1F0E0A6E75EC0BF00FC050
:1011880009F010C00AF075EC0BF0010E086E020EA3
:101198005BEC09F011C009F012C00AF075EC0BF015
:1011A8004F0E096E1F0E0A6E75EC0BF013C009F096
:1011B80014C00AF075EC0BF0EE0E096E1F0E0A6EE5
:1011C80075EC0BF015C009F016C00AF075EC0BF0C1
:1011D800010E086E030E5BEC09F011C009F012C095
:1011E8000AF075EC0BF0ED0E096E1F0E0A6E75EC29
:1011F8000BF0110E086E040E5BEC09F0E70E096E99
:101208001F0E0A6E75EC0BF01200000E746E000EC5
:1012180037EC0BF047D0C8EC00F0BB0E0F6E1F0E7A
:10122800106EFD0E116E1F0E126EF40E136E1F0E51
:10123800146EFA0E156E1F0E166EB6EC08F0010E3F
:1012480021D0000E106E030E0F6E2E0E6EEC06F0FF
:101258000FC072F010C073F072C02EF073C02FF080
:10126800B1EC07F02EC0D2F02FC0D3F030C0D4F0CC
:1012780031C0D5F0620E72187310D8A402D00A0ECD
:1012880001D0020E746E0ED07450706E716A715077
:10129800000AD8A407D07050000AD8B4BCD7010AF5
:1012A800D8B4CFD70A0E7418D8B41200EDD7096E87
:1012B8000904D8A410D008507F0F0C6E0C380F0BFF
:1012C8000A6E0C500F0B0B6E0A5049EC0EF00B50C7
:1012D80049EC0EF01200020E0918D8A410D00850DC
:1012E800BF0F0C6E0C380F0B0A6E0C500F0B0B6EE9
:1012F8000A5049EC0EF00B5049EC0EF01200030EA8
:101308000918D8A410D00850930F0C6E0C380F0B86
:101318000A6E0C500F0B0B6E0A5049EC0EF00B5076
:1013280049EC0EF01200040E0918D8A41200085057
:10133800D30F0C6E0C380F0B0A6E0C500F0B0B6E84
:101348000A5049EC0EF00B5049EC0EF012006E0EEC
:101358000E6E3CD08BEC0EF00E6E310E0E18D8A42B
:101368000FD00B0E0B6E260E0A6E5E0EE82EFED701
:101378000A2EFCD70B2EFAD7000E0D6E010E25D0C3
:10138800320E0E18D8A40FD00B0E0B6E260E0A6E56
:101398005E0EE82EFED70A2EFCD70B2EFAD7000ECB
:1013A8000D6E020E12D0620E0E18D8A4D0D70B0EF6
:1013B8000B6E260E0A6E5E0EE82EFED70A2EFCD79E
:1013C8000B2EFAD7000E0D6E620E0C6E6E0E0E18F6
:1013D800D8B4C0D70CC008F00DC009F01200000E38
:1013E8000A6E08AE06D0076C081ED8B0082A010E8F
:1013F8000A6E06AE06D0056C061ED8B0062A010E87
:101408000A1A000E0C6E000E0B6E07500810D8B4A6
:101418001CD0010E096E04D0D89007360836092A68
:1014280008AEFAD7D8900B360C360750055C085032
:101438000658D8A005D00750055E0850065A0B80FC
:10144800D89008320732092EEDD70A50D8B404D004
:101458000B6C0C1ED8B00C2A0BC005F00CC006F0A3
:101468001200000E1D6E000E1E6E000E1F6E000E86
:10147800206E19501A101B101C10D8B42AD0010E57
:10148800216E06D0D89019361A361B361C36212AFA
:101498001CAEF8D7D8901D361E361F362036195088
:1014A800155C1A5016581B5017581C501858D8A0BD
:1014B80009D01950155E1A50165A1B50175A1C504D
:1014C800185A1D80D8901C321B321A321932212E1C
:1014D800E1D71DC015F01EC016F01FC017F020C0C0
:1014E80018F01200086E29D0310E0518D8A439D08A
:1014F800010E1200620E0518D8B4FAD732D0310E98
:101508000518D8A402D0020E1200320E0518D8A46D
:1015180002D0030E1200330E0518D8A402D0040E10
:101528001200340E0518D8A402D0050E1200620E5F
:101538000518D8A416D0000E12000850066E076AC7
:101548000750000AD8A40DD00650000AD8B4CCD74A
:10155800010AD8B4D4D7030AD8B4CAD7010AD8B470
:10156800C9D7085012000750D8B403D00750D8A4E0
:1015780004D00550AEEC0EF012000750D96EDA6AAE
:101588000A0ED926DE50DE10D8B414D00750D96E12
:10159800DA6A0A0ED9260750E16EE26A030EE126DE
:1015A800DE50E65CE650800A0C6EDE50800A0C586D
:1015B800D8B012000750D96EDA6A030ED926DF5068
:1015C800086E0750D96EDA6ADF500824D96EDA6AD5
:1015D80005C0DFFF0750D96EDA6A030ED926DE2A66
:1015E800000EDD221200A7EC0EF0010E086E010EAF
:1015F8005BEC09F0230E096E1F0E0A6E75EC0BF0FA
:10160800010E086E020E5BEC09F0C20E096E1F0E89
:101618000A6E75EC0BF00FC009F010C00AF075ECFB
:101628000BF0010E086E030E5BEC09F0D00E096E8C
:101638001F0E0A6E75EC0BF0010E086E040E5BECC3
:1016480009F0D70E096E1F0E0A6E75EC0BF0110E1D
:10165800086E040E5BEC09F0E70E096E1F0E0A6EA9
:1016680075EC0BF012000B6E0BC007F0D890073624
:10167800D89007363C0E0716C250C30B0710C26E2F
:10168800C2A203D0076A072A01D0076A010E086EB2
:10169800072A02D0D8900836072EFCD7C2A003D05C
:1016A800096A092A01D0096A010E0A6E092A02D0BC
:1016B800D8900A36092EFCD70A500810C212C2B2B6
:1016C800FED7C350C4CF07F0086A07C008F0076AFE
:1016D80007100C6E08500D6E0CC005F00DC006F01A
:1016E8001200000E0E6E000E0D6E1AD00D50092459
:1016F8000B6E0E500A200C6E0BC0F6FF0CC0F7FFE5
:10170800F86A010EF76403D00800F55005D0F6CF4B
:10171800E1FFF7CFE2FFE75093EC0DF00D4A0E2AF8
:101728000D5009240B6E0E500A200C6E0BC0F6FFEC
:101738000CC0F7FFF86A010EF76403D00800F550F3
:1017480005D0F6CFE1FFF7CFE2FFE7500009D8B4A4
:101758001200CCD7000EE6EC0DF0340E086EF20E37
:10176800E82EFED7082EFCD7030E49EC0EF00D0E1E
:10177800086EFC0EE82EFED7082EFCD7030E49ECA7
:101788000EF01D0E086E910EE82EFED7082EFCD71F
:101798000000030E49EC0EF0020E49EC0EF0020EAA
:1017A80049EC0EF0080E49EC0EF0000E49EC0EF074
:1017B8000C0E49EC0EF0000E49EC0EF0060E49EC4A
:1017C8000EF01200000E0A6E06AE06D0056C061E5C
:1017D800D8B0062A010E0A6E08AE04D0076C081E9F
:1017E800D8B0082A07500810D8B418D0010E096ECE
:1017F80004D0D89007360836092A08AEFAD7075019
:10180800055C08500658D8A004D00750055E08505B
:10181800065AD89008320732092EF1D70A50D8B4A0
:1018280004D0056C061ED8B0062A05C005F006C00F
:1018380006F01200720ED36E000E836E000E956EC7
:10184800000E946EAEEC0BF0A0EC0EF096EC0EF0E1
:1018580075EC0EF09294949C949A9498000E066EEF
:10186800000E056E000E086E010E076E62EC08F0A1
:10187800000E066E010E056E000E086E000E076E55
:1018880062EC08F0000E066E020E056E000E086E81
:10189800000E076E62EC08F0949212000DC005F07D
:1018A8000EC006F0000E086E640E076EF3EC09F029
:1018B80005C00FF006C010F00DC005F00EC006F010
:1018C800000E086E640E076EE6EC0BF005C011F012
:1018D80006C012F00FC005F010C006F0000E086E2A
:1018E8003C0E076E24EC0EF011500524136E1250B6
:1018F8000620146E13C00DF014C00EF012001EEC7A
:101908000CF0010E27D02FEC0DF01BD009EC09F0DC
:10191800010E03D053EC0DF0030E0001FD6F11D042
:10192800FD51FA6FFB6BFB51000AD8A40AD0FA519B
:10193800010AD8B4E8D7030AD8B4E8D7010AD8B45A
:10194800E9D78BEC0EF00001FC6FFCC005F0FD51EF
:1019580076EC0AF00001FD6FE3D7F80EF66E1B0E69
:10196800F76E000EF86E00EEAEF010EE28F00900EB
:10197800F5CFEEFFE550E150FAE15E0EF66E1D0E72
:10198800F76E000EF86E0900F5CF7AF000EE80F0E1
:101998002E0EEE6AE806FDE1796A786A776A766A59
:1019A800756A7B907B92000EF86E000183EF0CF055
:1019B800000E2A6E000E2B6E000E2C6E000E2D6E81
:1019C80022A008D026502A2627502B2228502C2225
:1019D80029502D22D8902636273628362936D890F1
:1019E800253224322332223222502310241025108B
:1019F800D8A4E6D72AC022F02BC023F02CC024F0AC
:101A08002DC025F012000B500C10D8B41DD00904BD
:101A18000A10D8A40BD0000E066E000E056E000E3C
:101A2800086E010E076E80EC0EF00ED009500A10F9
:101A3800D8A40AD0000E066E010E056E000E086EC0
:101A4800000E076E80EC0EF00BC005F00CC006F01F
:101A580037EC0EF01200A7EC0EF0010E086E010E26
:101A68005BEC09F0410E096E1F0E0A6E75EC0BF067
:101A7800010E086E020E5BEC09F0D50E096E1E0E03
:101A88000A6E75EC0BF0010E086E030E5BEC09F0A4
:101A98009B0E096E1F0E0A6E75EC0BF01200A7EC78
:101AA8000EF0010E086E010E5BEC09F0EA0E096EED
:101AB8001E0E0A6E75EC0BF0020E086E020E5BEC41
:101AC80009F0120E096E1F0E0A6E75EC0BF0010E6E
:101AD800086E040E5BEC09F0E70E096E1F0E0A6E25
:101AE80075EC0BF01200520E566E4FC057F0000EF8
:101AF8005B6E000E5A6E000E626E000E616E570E1F
:101B0800496E50C04AF051C04BF0560E4C6ECBECAB
:101B18000DF04F505A24D96EDA6ADF6A1200086E47
:101B280008500F0B066E0850F00B076E83840738B9
:101B38000F0BE6EC0DF083861A0EE82EFED700D0C8
:101B480083960650E6EC0DF083861A0EE82EFED733
:101B580000D083961200036E0350D8B409D0015008
:101B68001E08776E0250D8A0E82A0008786E120086
:101B7800190E0124776EF30E0220786E060E7A187D
:101B8800D8A403D0010E7A6E12007A2A12004AC035
:101B98004DF04BC04EF008D049C03CF04D0E3D6EA4
:101BA8004CC03EF053EC04F04DC0F6FF4EC0F7FFBA
:101BB8000800F5500009D8A4EFD7000E4A6E000EB1
:101BC800496E1200056E05A002D0838801D0839863
:101BD80005A202D0838A01D0839A05A402D0838CFF
:101BE80001D0839C05A602D0838E1200839E12002A
:101BF800320032003200320032003200D0070000DA
:101C0800D00700004C1D000064000000E80300003D
:101C1800640000000A00000010BE05D00FC00FF0DD
:101C280010C010F012000FC011F010C012F0111EF9
:101C3800121E114A122A11C00FF012C010F0120021
:101C480005500702F3CF09F0F4CF0AF00550080257
:101C5800F3500A2606500702F3500A2609C005F079
:101C68000AC006F012000538F00B300B0C09BD6EE7
:101C780005C007F006C008F0D89008320732D8909F
:101C8800083207320750BE6E1200076E8394075061
:101C9800E6EC0DF083860B0E066E620EE82EFED77C
:101CA800062EFCD700D0839612000AD0030E076ECA
:101CB800980EE82EFED7072EFCD70506D8A00606F4
:101CC80005500610D8B41200F1D7F28EF28C9D8020
:101CD8009E90800ECD6EF80ECF6E560ECE6ECD80D5
:101CE8001200829494940C0EBD6E000EBE6E9E92ED
:101CF800050ECA6ECB68120005A002D0838201D0FF
:101D0800839207A002D083801200839012006E0E87
:101D180002D021EC03F0076E6E0E0718D8B4F9D77D
:101D28000750120092680E0EC16E920EC06E000E21
:101D3800C46E000EC36E1200000E816EF00E936E1C
:101D4800948EF19E1200000E49EC0EF0010E49EC43
:071D58000EF0120012000161
:101EBC0000C409C409C409C409C409C409F401F45F
:101ECC0001F401F401F401F401312E5374617274C4
:101EDC00204E657720496E667573696F6E00466F8C
:101EEC0072206D6F726520696E666F726D617469B8
:101EFC006F6E00494E465553494F4E20434F4D503F
:101F0C004C455445440056697369743A20686172B3
:101F1C00646E672E656400444F20594F552057411D
:101F2C004E5420544F00535952494E474520495363
:101F3C00204E4F54004D65646953796E63204D6596
:101F4C006E7500204245545745454E20302D0043B8
:101F5C004C4F53452056414C56450050555348491B
:101F6C004E472E2E2E0050554C4C494E472E2E2EA1
:101F7C00004F50454E2056414C5645005055534845
:101F8C00454420494E00494E465553494F4E003268
:101F9C002E4D616E75616C0046494C4C494E4700A4
:101FAC0050555348494E47004572726F723A00566D
:101FBC004F4C554D450053544152542000494E50FE
:101FCC0055542000312E2059455300322E204E4FAF
:101FDC00004578703A00506F733A004241434B0011
:101FEC00543A2000256C64003130002564006D6C7F
:041FFC00005600008B
:020000040030CA
:0E000000FF081E1EFF8181FF03C003E00340C6
:00000001FF
