:04000000C5EF00F058
:100008007B829EA00DD0F80ECF6E560ECE6E8A1E45
:100018009E90010E7326000E742275227622AFD0B0
:10002800F2A4ADD0F29494D08BB203D0046A042A1F
:1000380001D0046A04468B500418FD0B04188B6E1B
:10004800ACC001F0ADC002F08BA202D0010E01D00D
:10005800000EB6EC0CF08FD08AB203D0046A042AE2
:1000680001D0046A04468A500418FD0B04188A6EED
:10007800AEC001F0AFC002F08AA202D0010E01D0DA
:10008800000EB6EC0CF077D08AB403D0046A042AC8
:1000980001D0046A044604468A500418FB0B04186D
:1000A8008A6EB0C001F0B1C002F08AA402D0010E7D
:1000B80001D0000EB6EC0CF05ED08AB603D0046A0C
:1000C800042A01D0046A0446044604468A500418E7
:1000D800F70B04188A6EB2C001F0B3C002F08AA60A
:1000E80002D0010E01D0000EB6EC0CF044D08AB854
:1000F80003D0046A042A01D0046A043A8A50041816
:10010800EF0B04188A6EB4C001F0B5C002F08AA8DB
:1001180002D0010E01D0000EB6EC0CF02CD08ABA39
:1001280003D0046A042A01D0046A043A04468A50B7
:100138000418DF0B04188A6EB6C001F0B7C002F0CD
:100148008AAA02D0010E01D0000EB6EC0CF013D032
:100158007A50010AD8B468D7030AD8B47DD7010AFF
:10016800D8B492D7070AD8B4A8D7010AD8B4BFD749
:10017800030AD8B4D4D77850D76E77C0D6FF7B920D
:100188001100B7EF0BF070EC0DF08A68000E10EC60
:100198000AF005C0DCF006C0DDF0000E0E6E640E3D
:1001A8000D6E2BEC0BF00DC0EBF00EC0ECF0000167
:1001B800000EECBFFF0EED6FEE6FAEEC0DF0000E13
:1001C800066E010E056E000E086E010E076E8DECB0
:1001D80007F0A1D1F0EC05F054C0E3F055C0E4F00D
:1001E80056C0E5F057C0E6F0000E10EC0AF005C066
:1001F800E7F006C0E8F00001000EE8BFFF0EE96F67
:10020800EA6FE351E75DF46FE451E859F56FE551A2
:10021800E959F66FE651EA59F76FA051F45D2E6E71
:10022800A151F5592F6EA251F659306EA351F759C5
:10023800316E000E326E000E336E000E346E000EFC
:10024800356E6CEC06F02EC0D4F02FC0D5F030C05F
:10025800D6F031C0D7F0F4C022F0F5C023F0F6C0D4
:1002680024F0F7C025F0000E266E000E276E000E53
:10027800286E000E296EE3EC0BF022500001A42733
:100288002350A5232450A6232550A723F4C022F0E9
:10029800F5C023F0F6C024F0F7C025F04C0E266E0A
:1002A8001D0E276E000E286E000E296EE3EC0BF073
:1002B80022C068F023C069F024C06AF025C06BF042
:1002C800A4C022F0A5C023F0A6C024F0A7C025F042
:1002D800D00E266E070E276E000E286E000E296EB1
:1002E800E3EC0BF0225068246C6E235069206D6E8D
:1002F80024506A206E6E25506B206F6ED4C022F099
:10030800D5C023F0D6C024F0D7C025F0D00E266E75
:10031800070E276E000E286E000E296EE3EC0BF018
:1003280022506C242E6E23506D202F6E24506E2088
:10033800306E25506F20316E640E326E000E336EB3
:10034800000E346E000E356E6CEC06F02EC0F0F028
:100358002FC0F1F030C0F2F031C0F3F00001F3AF7C
:1003680008D0000EF06F000EF16F000EF26F000E55
:10037800F36FF3BF10D0F351F21105E1F029010E2C
:10038800F159D8A008D0FE0EF06F010EF16F000EE3
:10039800F26F000EF36F000E0A6E000E096EF0C0C9
:1003A8000BF0F1C00CF00EEC0CF0F4C0A0F0F5C0AE
:1003B800A1F0F6C0A2F0F7C0A3F0010E086E010E7E
:1003C80034EC08F0B40E096E1F0E0A6E4EEC0AF0FB
:1003D800DE0E4F6EF00E506E1F0E516EF4C052F0CE
:1003E800F5C053F0F6C054F0F7C055F07EEC0CF0B1
:1003F800DE0E096E0A6A4EEC0AF0010E086E020E55
:1004080034EC08F0E20E096E1F0E0A6E4EEC0AF08C
:10041800DE0E4F6EF00E506E1F0E516EE7C052F09A
:10042800E8C053F0E9C054F0EAC055F07EEC0CF097
:10043800DE0E096E0A6A4EEC0AF0010E086E030E13
:1004480034EC08F0DD0E096E1F0E0A6E4EEC0AF051
:10045800DE0E4F6EF00E506E1F0E516EE3C052F05E
:10046800E4C053F0E5C054F0E6C055F07EEC0CF063
:10047800DE0E096E0A6A4EEC0AF00A0E086E040EC9
:1004880034EC08F0EC0E096E1F0E0A6E4EEC0AF002
:1004980073C02EF074C02FF075C030F076C031F004
:1004A800E80E326E030E336E000E346E000E356E9B
:1004B8006CEC06F02E500001EB5DD86F2F50EC5914
:1004C800D96F3050ED59DA6F3150EE59DB6FDE0ECF
:1004D8004F6EF70E506E1F0E516ED8C052F0D9C035
:1004E80053F0DAC054F0DBC055F07EEC0CF0DE0EB1
:1004F800096E0A6A4EEC0AF0000E066E640E056E6E
:1005080060EC0DF0AEEC0DF0000E10EC0AF005C03A
:10051800DCF006C0DDF0EBC022F0ECC023F0EDC04B
:1005280024F0EEC025F0E80E266E030E276E000EAE
:10053800286E000E296EE3EC0BF02250735C2350FA
:100548007458245075587650800A686E2550800A71
:100558006858D8A03FD6000E066E010E056E000E34
:10056800086E000E076E8DEC07F0000E0A6E010E85
:10057800096E000E0C6E000E0B6E0EEC0CF0AEEC5D
:100588000DF0010E086E010E34EC08F0FF0E096E36
:100598001E0E0A6E4EEC0AF0000E0001EF6F000E00
:1005A800066E030E056E000E086E010E076E8DECCA
:1005B80007F0000E066E020E056E000E086E010EA4
:1005C800076E8DEC07F00B0E696E260E686E5E0ED8
:1005D800E82EFED7682EFCD7692EFAD7000E066ED5
:1005E800030E056E000E086E000E076E8DEC07F008
:1005F800000E066E020E056E000E086E000E076EE7
:100608008DEC07F00B0E696E260E686E5E0EE82EF6
:10061800FED7682EFCD7692EFAD70001EF2BEF51D1
:10062800800A7B0FD8A0BBD7DCC011F0DDC012F068
:10063800D2EC06F01200819081828184818681B893
:1006480010D0020E066E040E056EBA0EE82EFED706
:10065800052EFCD7062EFAD700D081A8FED7370E74
:10066800120082BE10D0020E066E040E056EBA0E7F
:10067800E82EFED7052EFCD7062EFAD700D082AE7C
:10068800FED7380E120081BC10D0020E066E040E82
:10069800056EBA0EE82EFED7052EFCD7062EFAD721
:1006A80000D081ACFED7390E120081BE10D0020EE8
:1006B800066E040E056EBA0EE82EFED7052EFCD780
:1006C800062EFAD700D081AEFED7750E12008180B3
:1006D80081928184818681B810D0020E066E040E44
:1006E800056EBA0EE82EFED7052EFCD7062EFAD7D1
:1006F80000D081A8FED7340E120082BE10D0020EA0
:10070800066E040E056EBA0EE82EFED7052EFCD72F
:10071800062EFAD700D082AEFED7350E120081BC65
:1007280010D0020E066E040E056EBA0EE82EFED725
:10073800052EFCD7062EFAD700D081ACFED7360E90
:10074800120081BE10D0020E066E040E056EBA0E9F
:10075800E82EFED7052EFCD7062EFAD700D081AE9C
:10076800FED7720E1200818081828194818681B8C1
:1007780010D0020E066E040E056EBA0EE82EFED7D5
:10078800052EFCD7062EFAD700D081A8FED7310E49
:10079800120082BE10D0020E066E040E056EBA0E4E
:1007A800E82EFED7052EFCD7062EFAD700D082AE4B
:1007B800FED7320E120081BC10D0020E066E040E57
:1007C800056EBA0EE82EFED7052EFCD7062EFAD7F0
:1007D80000D081ACFED7330E120081BE10D0020EBD
:1007E800066E040E056EBA0EE82EFED7052EFCD74F
:1007F800062EFAD700D081AEFED76C0E120081808B
:1008080081828184819681B810D0020E066E040E12
:10081800056EBA0EE82EFED7052EFCD7062EFAD79F
:1008280000D081A8FED7620E120082BE10D0020E40
:10083800066E040E056EBA0EE82EFED7052EFCD7FE
:10084800062EFAD700D082AEFED7300E120081BC39
:1008580010D0020E066E040E056EBA0EE82EFED7F4
:10086800052EFCD7062EFAD700D081ACFED72E0E67
:10087800120081BE10D0020E066E040E056EBA0E6E
:10088800E82EFED7052EFCD7062EFAD700D081AE6B
:10089800FED7640E12006E0E12003D50D96EDA6A51
:1008A800DECFF6FFDDCFF7FF0800F550250AD8A404
:1008B800EED03D50D96EDA6ADE2A000EDD22000E37
:1008C8000001A96F000EA86FA8C079F0AA69AB69EA
:1008D8003D50D96EDA6ADECF42F0DDCF43F042C038
:1008E800F6FF43C0F7FF0800F5CF48F008D0424AAA
:1008F800432A10D0690E01D0000E486E0BD0485024
:10090800640AD8B4F7D70D0AD8B4F4D7050AD8B40E
:10091800EED7F2D742C0F6FF43C0F7FF0800F55004
:10092800640AD8B42DD042C0F6FF43C0F7FF0800D0
:10093800F550690AD8B424D0A3D03E50D96EDA6AEB
:10094800DF50DF2ADF2AD96EDA6ADECF44F0DDCF46
:1009580045F0000E45BEFF0E466E476E18D03E505D
:10096800D96EDA6A040EDF26DF5CD96EDA6ADECF6A
:1009780044F0DECF45F0DECF46F0DECF47F007D0BB
:100988004850690AD8B4D9D7050AD8B4E8D7010EAF
:1009980042243F6E000E4320406E3D50D96EDA6A05
:1009A8003FC0DEFF40C0DDFF200E486E47AE02D0DC
:1009B800010E01D0000E416E48064850800FD96ED6
:1009C800DA6A44C005F045C006F046C007F047C0E3
:1009D80008F00A0E096E000E0A6E000E0B6E000E6D
:1009E8000C6E37EC07F005C00FF006C010F017ECDE
:1009F8000DF00F50300FDF6E44C02EF045C02FF0C1
:100A080046C030F047C031F00A0E326E000E336E29
:100A1800000E346E000E356E6CEC06F02EC044F0FD
:100A28002FC045F030C046F031C047F04450451063
:100A380046104710D8B403D04850D8A4BDD7485062
:100A4800D8B419D04150D8B416D048064850800FB1
:100A5800D96EDA6A2D0EDF6E0ED04850800FD96E2F
:100A6800DA6ADF503F6E3F50056E066A3CC007F0F9
:100A780090EC09F0482A200E4818D8B41200EDD797
:100A88003D50D96EDA6ADE2A000EDD2212003D5092
:100A9800D96EDA6ADECFF6FFDDCFF7FF0800F55032
:100AA800056E066A3CC007F090EC09F0E9D73CC037
:100AB80022F03DC023F03EC024F03FC025F0100EC8
:100AC800266E270E276E000E286E000E296EE3ECA8
:100AD8000BF022C02EF023C02FF024C030F025C028
:100AE80031F09E0E326E000E336E000E346E000E24
:100AF800356E6CEC06F02EC044F02FC045F030C0C7
:100B080046F031C047F044C02EF045C02FF046C033
:100B180030F047C031F040C032F041C033F042C03D
:100B280034F043C035F06CEC06F02EC048F02FC00E
:100B380049F030C04AF031C04BF048C022F049C0FB
:100B480023F04AC024F04BC025F0640E266E000E38
:100B5800276E000E286E000E296EE3EC0BF022C003
:100B68002EF023C02FF024C030F025C031F00A0E3B
:100B7800326E000E336E000E346E000E356E6CEC65
:100B880006F02EC04CF02FC04DF030C04EF031C0F2
:100B98004FF04CC02EF04DC02FF04EC030F04FC07B
:100BA80031F0060E326E000E336E000E346E000EFB
:100BB800356E6CEC06F02EC050F02FC051F030C0EE
:100BC80052F031C053F050C03CF051C03DF052C01B
:100BD8003EF053C03FF0120073C058F074C059F093
:100BE80075C05AF076C05BF0000E0E6E640E0D6E86
:100BF8002BEC0BF00DC040F00EC041F0000E41BED2
:100C0800FF0E426E436E0A0E3C6E000E3D6E000EE5
:100C18003E6E000E3F6E5BEC05F03CC060F03DC0E0
:100C280061F03EC062F03FC063F0E80E196E030E3B
:100C38001A6E000E1B6E000E1C6E58C015F059C0BF
:100C480016F05AC017F05BC018F00EEC09F015C08A
:100C580022F016C023F017C024F018C025F060C099
:100C680026F061C027F062C028F063C029F0E3ECE9
:100C78000BF022C064F023C065F024C066F025C0E4
:100C880067F064C015F065C016F066C017F067C05D
:100C980018F00A0E196E000E1A6E000E1B6E000E6A
:100CA8001C6E0EEC09F01550FF085C6E030E16540E
:100CB8005D6E000E17545E6E000E18545F6E5CC0B9
:100CC80054F05DC055F05EC056F05FC057F012009A
:100CD800000E376E35AE0AD0351E341E331E326C08
:100CE800000E332234223522010E376E31AE0AD07F
:100CF800311E301E2F1E2E6C000E2F223022312264
:100D0800010E371A000E386E000E396E000E3A6E5C
:100D1800000E3B6E3250331034103510D8B42AD040
:100D2800010E366E06D0D890323633363436353624
:100D3800362A35AEF8D7D890383639363A363B3673
:100D480032502E5C33502F5834503058355031586B
:100D5800D8A009D032502E5E33502F5A3450305A12
:100D68003550315A3880D8903532343233323232B5
:100D7800362EE1D73750D8B408D03B1E3A1E391E5C
:100D8800386C000E39223A223B2238C02EF039C086
:100D98002FF03AC030F03BC031F01200AC0E0F6EAD
:100DA8001F0E106ED0EC09F084EC08F008C014F0A7
:100DB80009C015F014041510D8A41200AEEC0DF0FB
:100DC800010E086E010E34EC08F0670E096E1F0E56
:100DD8000A6E4EEC0AF02AD0000E10EC0AF005C09C
:100DE80011F006C012F0000E066E010E056E000E20
:100DF800086E010E076E8DEC07F0410E136EEE0EB5
:100E0800E82EFED7132EFCD700D0000E0A6E000E77
:100E1800096E030E0C6E0B680EEC0CF0410E136E8F
:100E2800EE0EE82EFED7132EFCD700D012BE06D049
:100E38001250D2E1150E115CD8B0CED7000E0A6E52
:100E4800010E096E000E0C6E000E0B6E0EEC0CF00F
:100E5800000E066E010E056E000E086E000E076E7F
:100E68008DEC07F01200000E0E6E08AE0AD0081EB8
:100E7800071E061E056C000E062207220822010E18
:100E88000E6E0CAE08D00C1E0B1E0A1E096C000E4E
:100E98000A220B220C2209500A100B100C10D8B48D
:100EA80024D0010E0D6E06D0D89009360A360B36BE
:100EB8000C360D2A0CAEF8D70950055C0A500658B6
:100EC8000B5007580C500858D8A008D00950055E98
:100ED8000A50065A0B50075A0C50085AD8900C3230
:100EE8000B320A3209320D2EE7D70E50D8B408D08B
:100EF800081E071E061E056C000E06220722082281
:100F080005C005F006C006F007C007F008C008F0E5
:100F1800120005500610D8A406D007040810D8A45B
:100F280002D08984120005500610D8A406D00750B4
:100F38000810D8A402D08994120005040610D8A479
:100F480006D007040810D8A402D08B8C1200050420
:100F58000610D8A406D007500810D8A402D08B9C3D
:100F68001200020E05180610D8A406D007040810AF
:100F7800D8A402D08B8A1200020E05180610D8A435
:100F880006D007500810D8A402D08B9A1200030E7E
:100F980005180610D8A406D007040810D8A402D053
:100FA8008B881200030E05180610D8A412000750EB
:100FB8000810D8A412008B981200AEEC0DF0010EA8
:100FC800086E010E34EC08F0C90E096E1F0E0A6E89
:100FD8004EEC0AF00FC009F010C00AF04EEC0AF00F
:100FE800010E086E020E34EC08F011C009F012C0B0
:100FF8000AF04EEC0AF04F0E096E1F0E0A6E4EEC08
:101008000AF013C009F014C00AF04EEC0AF0EE0E14
:10101800096E1F0E0A6E4EEC0AF015C009F016C0D4
:101028000AF04EEC0AF0010E086E030E34EC08F0DC
:1010380011C009F012C00AF04EEC0AF0ED0E096E6C
:101048001F0E0A6E4EEC0AF0110E086E040E34ECF8
:1010580008F0E70E096E1F0E0A6E4EEC0AF0120039
:10106800096E0904D8A410D008507F0F0C6E0C38F4
:101078000F0B0A6E0C500F0B0B6E0A5050EC0DF054
:101088000B5050EC0DF01200020E0918D8A410D025
:101098000850BF0F0C6E0C380F0B0A6E0C500F0B5C
:1010A8000B6E0A5050EC0DF00B5050EC0DF0120086
:1010B800030E0918D8A410D00850930F0C6E0C38E2
:1010C8000F0B0A6E0C500F0B0B6E0A5050EC0DF004
:1010D8000B5050EC0DF01200040E0918D8A41200A1
:1010E8000850D30F0C6E0C380F0B0A6E0C500F0BF8
:1010F8000B6E0A5050EC0DF00B5050EC0DF0120036
:101108006E0E0E6E3CD092EC0DF00E6E310E0E1877
:10111800D8A40FD00B0E0B6E260E0A6E5E0EE82EAC
:10112800FED70A2EFCD70B2EFAD7000E0D6E010E35
:1011380025D0320E0E18D8A40FD00B0E0B6E260E2B
:101148000A6E5E0EE82EFED70A2EFCD70B2EFAD7B3
:10115800000E0D6E020E12D0620E0E18D8A4D0D753
:101168000B0E0B6E260E0A6E5E0EE82EFED70A2EAA
:10117800FCD70B2EFAD7000E0D6E620E0C6E6E0E9B
:101188000E18D8B4C0D70CC008F00DC009F0120072
:10119800000E0A6E08AE06D0076C081ED8B0082AE2
:1011A800010E0A6E06AE06D0056C061ED8B0062AD9
:1011B800010E0A1A000E0C6E000E0B6E0750081076
:1011C800D8B41CD0010E096E04D0D8900736083662
:1011D800092A08AEFAD7D8900B360C360750055CAA
:1011E80008500658D8A005D00750055E0850065A82
:1011F8000B80D89008320732092EEDD70A50D8B4A0
:1012080004D00B6C0C1ED8B00C2A0BC005F00CC017
:1012180006F01200000E1D6E000E1E6E000E1F6EF0
:10122800000E206E19501A101B101C10D8B42AD0AA
:10123800010E216E06D0D89019361A361B361C3688
:10124800212A1CAEF8D7D8901D361E361F362036F8
:101258001950155C1A5016581B5017581C5018581E
:10126800D8A009D01950155E1A50165A1B50175A93
:101278001C50185A1D80D8901C321B321A32193251
:10128800212EE1D71DC015F01EC016F01FC017F0A3
:1012980020C018F01200086E29D0310E0518D8A405
:1012A80039D0010E1200620E0518D8B4FAD732D020
:1012B800310E0518D8A402D0020E1200320E0518FD
:1012C800D8A402D0030E1200330E0518D8A402D0F9
:1012D800040E1200340E0518D8A402D0050E120010
:1012E800620E0518D8A416D0000E12000850066E1B
:1012F800076A0750000AD8A40DD00650000AD8B4CF
:10130800CCD7010AD8B4D4D7030AD8B4CAD7010AAB
:10131800D8B4C9D7085012000750D8B403D0075022
:10132800D8A404D00550B5EC0DF012000750D96EC2
:10133800DA6A0A0ED926DE50DE10D8B414D0075067
:10134800D96EDA6A0A0ED9260750E16EE26A030EF0
:10135800E126DE50E65CE650800A0C6EDE50800A1C
:101368000C58D8B012000750D96EDA6A030ED92685
:10137800DF50086E0750D96EDA6ADF500824D96E3C
:10138800DA6A05C0DFFF0750D96EDA6A030ED9267C
:10139800DE2A000EDD221200AEEC0DF0010E086E02
:1013A800010E34EC08F0230E096E1F0E0A6E4EEC87
:1013B8000AF0010E086E020E34EC08F0C20E096E37
:1013C8001F0E0A6E4EEC0AF00FC009F010C00AF0AA
:1013D8004EEC0AF0010E086E030E34EC08F0D00E45
:1013E800096E1F0E0A6E4EEC0AF0010E086E040E0E
:1013F80034EC08F0D70E096E1F0E0A6E4EEC0AF098
:10140800110E086E040E34EC08F0E70E096E1F0E7C
:101418000A6E4EEC0AF012000B6E0BC007F0D89063
:101428000736D89007363C0E0716C250C30B071074
:10143800C26EC2A203D0076A072A01D0076A010E4A
:10144800086E072A02D0D8900836072EFCD7C2A00B
:1014580003D0096A092A01D0096A010E0A6E092A0D
:1014680002D0D8900A36092EFCD70A500810C212AA
:10147800C2B2FED7C350C4CF07F0086A07C008F04D
:10148800076A07100C6E08500D6E0CC005F00DC0F1
:1014980006F01200000E0E6E000E0D6E1AD00D50E2
:1014A80009240B6E0E500A200C6E0BC0F6FF0CC000
:1014B800F7FFF86A010EF76403D00800F55005D06D
:1014C800F6CFE1FFF7CFE2FFE7509AEC0CF00D4AB8
:1014D8000E2A0D5009240B6E0E500A200C6E0BC0FC
:1014E800F6FF0CC0F7FFF86A010EF76403D0080096
:1014F800F55005D0F6CFE1FFF7CFE2FFE75000093E
:10150800D8B41200CCD7000EEDEC0CF0340E086EF7
:10151800F20EE82EFED7082EFCD7030E50EC0DF085
:101528000D0E086EFC0EE82EFED7082EFCD7030E13
:1015380050EC0DF01D0E086E910EE82EFED7082E09
:10154800FCD70000030E50EC0DF0020E50EC0DF02D
:10155800020E50EC0DF0080E50EC0DF0000E50ECA1
:101568000DF00C0E50EC0DF0000E50EC0DF0060EC8
:1015780050EC0DF01200000E0A6E06AE06D0056C97
:10158800061ED8B0062A010E0A6E08AE04D0076CF3
:10159800081ED8B0082A07500810D8B418D0010E71
:1015A800096E04D0D89007360836092A08AEFAD74B
:1015B8000750055C08500658D8A004D00750055EAF
:1015C8000850065AD89008320732092EF1D70A5027
:1015D800D8B404D0056C061ED8B0062A05C005F09C
:1015E80006C006F01200720ED36E000E836E000E57
:1015F800956E000E946E87EC0AF0A7EC0DF09DEC4A
:101608000DF07CEC0DF09294949C949A9498000EB2
:10161800066E000E056E000E086E010E076E8DEC4C
:1016280007F0000E066E010E056E000E086E000E25
:10163800076E8DEC07F0000E066E020E056E000EAA
:10164800086E000E076E8DEC07F0949212000DC024
:1016580005F00EC006F0000E086E640E076ECCECA6
:1016680008F005C00FF006C010F00DC005F00EC060
:1016780006F0000E086E640E076EBFEC0AF005C097
:1016880011F006C012F00FC005F010C006F0000EF1
:10169800086E3C0E076E2BEC0DF011500524136EEE
:1016A80012500620146E13C00DF014C00EF0120074
:1016B800F7EC0AF0010E27D036EC0CF01BD08AECC0
:1016C8000BF0010E03D05AEC0CF0030E0001FB6F77
:1016D80011D0FB51F86FF96BF951000AD8A40AD060
:1016E800F851010AD8B4E8D7030AD8B4E8D7010AF0
:1016F800D8B4E9D792EC0DF00001FA6FFAC005F002
:10170800FB514FEC09F00001FB6FE3D7000E726E3E
:10171800000E10EC0AF022D0C7EC00F0BB0E0F6EE2
:101728001F0E106EFD0E116E1F0E126EF40E136E4C
:101738001F0E146EFA0E156E1F0E166EE1EC07F0F2
:10174800010E726E0BD07250706E716A7150000A81
:10175800D8A404D07050000AD8B4DED70A0E721884
:10176800D8B41200F0D7060EF66E1A0EF76E000EF9
:10177800F86E00EEACF010EE28F00900F5CFEEFFA1
:10178800E550E150FAE16C0EF66E1B0EF76E000E96
:10179800F86E0900F5CF7AF000EE80F02C0EEE6AB4
:1017A800E806FDE100EE73F0070EEE6AE806FDE1DB
:1017B8007B907B92000EF86E00015CEF0BF0000E40
:1017C8002A6E000E2B6E000E2C6E000E2D6E22A0BF
:1017D80008D026502A2627502B2228502C22295060
:1017E8002D22D8902636273628362936D890253205
:1017F8002432233222322250231024102510D8A458
:10180800E6D72AC022F02BC023F02CC024F02DC02C
:1018180025F012000B500C10D8B41DD009040A1082
:10182800D8A40BD0000E066E000E056E000E086ED2
:10183800010E076E87EC0DF00ED009500A10D8A4DF
:101848000AD0000E066E010E056E000E086E000E20
:10185800076E87EC0DF00BC005F00CC006F03EECEF
:101868000DF01200AEEC0DF0010E086E010E34EC16
:1018780008F0410E096E1F0E0A6E4EEC0AF0010EBA
:10188800086E020E34EC08F0D50E096E1E0E0A6EB4
:101898004EEC0AF0010E086E030E34EC08F09B0EB5
:1018A800096E1F0E0A6E4EEC0AF01200AEEC0DF037
:1018B800010E086E010E34EC08F0EA0E096E1E0ED9
:1018C8000A6E4EEC0AF0020E086E020E34EC08F0B6
:1018D800120E096E1F0E0A6E4EEC0AF0010E086E0B
:1018E800040E34EC08F0E70E096E1F0E0A6E4EEC7B
:1018F8000AF01200520E566E4FC057F0000E5B6E83
:10190800000E5A6E000E626E000E616E570E496E22
:1019180050C04AF051C04BF0560E4C6ED2EC0CF051
:101928004F505A24D96EDA6ADF6A1200086E0850DE
:101938000F0B066E0850F00B076E838407380F0BE9
:10194800EDEC0CF083861A0EE82EFED700D08396B5
:101958000650EDEC0CF083861A0EE82EFED700D068
:1019680083961200036E0350D8B409D001501E08A4
:10197800776E0250D8A0E82A0008786E1200190E77
:101988000124776EF30E0220786E060E7A18D8A41A
:1019980003D0010E7A6E12007A2A12004AC04DF066
:1019A8004BC04EF008D049C03CF04D0E3D6E4CC0C7
:1019B8003EF051EC04F04DC0F6FF4EC0F7FF0800B2
:1019C800F5500009D8A4EFD7000E4A6E000E496EF4
:1019D8001200056E05A002D0838801D0839805A265
:1019E80002D0838A01D0839A05A402D0838C01D0C7
:1019F800839C05A602D0838E1200839E12003200BB
:101A080032003200320032003200D0070000D00726
:101A180000004C1D000064000000E80300006400A2
:101A280000000A00000010BE05D00FC00FF010C063
:101A380010F012000FC011F010C012F0111E121E8B
:101A4800114A122A11C00FF012C010F012000550EE
:101A58000702F3CF09F0F4CF0AF005500802F3505B
:101A68000A2606500702F3500A2609C005F00AC0E4
:101A780006F012000538F00B300B0C09BD6E05C0DE
:101A880007F006C008F0D89008320732D89008321C
:101A980007320750BE6E1200076E83940750EDECB4
:101AA8000CF083860B0E066E620EE82EFED7062E0D
:101AB800FCD700D0839612000AD0030E076E980E4A
:101AC800E82EFED7072EFCD70506D8A00606055037
:101AD8000610D8B41200F1D7F28EF28C9D809E9039
:101AE800800ECD6EF80ECF6E560ECE6ECD801200E3
:101AF800829494940C0EBD6E000EBE6E9E92050EDE
:101B0800CA6ECB68120005A002D0838201D08392EE
:101B180007A002D083801200839012006E0E02D0BC
:101B28001FEC03F0076E6E0E0718D8B4F9D70750EC
:101B3800120092680E0EC16E920EC06E000EC46E38
:101B4800000EC36E1200000E816EF00E936E948E1E
:101B5800F19E1200000E50EC0DF0010E50EC0DF04D
:051B6800120012000153
:101EBC0000C409C409C409C409C409C409F401F45F
:101ECC0001F401F401F401F401312E5374617274C4
:101EDC00204E657720496E667573696F6E00466F8C
:101EEC0072206D6F726520696E666F726D617469B8
:101EFC006F6E00494E465553494F4E20434F4D503F
:101F0C004C455445440056697369743A20686172B3
:101F1C00646E672E656400444F20594F552057411D
:101F2C004E5420544F00535952494E474520495363
:101F3C00204E4F54004D65646953796E63204D6596
:101F4C006E7500204245545745454E20302D0043B8
:101F5C004C4F53452056414C56450050555348491B
:101F6C004E472E2E2E0050554C4C494E472E2E2EA1
:101F7C00004F50454E2056414C5645005055534845
:101F8C00454420494E00494E465553494F4E003268
:101F9C002E4D616E75616C0046494C4C494E4700A4
:101FAC0050555348494E47004572726F723A00566D
:101FBC004F4C554D450053544152542000494E50FE
:101FCC0055542000312E2059455300322E204E4FAF
:101FDC00004578703A00506F733A004241434B0011
:101FEC00543A2000256C64003130002564006D6C7F
:041FFC00005600008B
:020000040030CA
:0E000000FF081E1EFF8181FF03C003E00340C6
:00000001FF
